{
  "_format": "hh-sol-artifact-1",
  "contractName": "Adoption",
  "sourceName": "contracts/Adoption.sol",
  "abi": [
    {
      "anonymous": false,
      "inputs": [
        {
          "indexed": true,
          "internalType": "address",
          "name": "petOwner",
          "type": "address"
        },
        {
          "indexed": false,
          "internalType": "uint32",
          "name": "petId",
          "type": "uint32"
        }
      ],
      "name": "PetAssigned",
      "type": "event"
    },
    {
      "inputs": [
        {
          "internalType": "uint32",
          "name": "petId",
          "type": "uint32"
        }
      ],
      "name": "adopt",
      "outputs": [],
      "stateMutability": "nonpayable",
      "type": "function"
    },
    {
      "inputs": [
        {
          "internalType": "uint256",
          "name": "",
          "type": "uint256"
        }
      ],
      "name": "adopters",
      "outputs": [
        {
          "internalType": "address",
          "name": "",
          "type": "address"
        }
      ],
      "stateMutability": "view",
      "type": "function"
    },
    {
      "inputs": [],
      "name": "getAdopters",
      "outputs": [
        {
          "internalType": "address[16]",
          "name": "",
          "type": "address[16]"
        }
      ],
      "stateMutability": "view",
      "type": "function"
    }
  ],
  "bytecode": "0x608060405234801561001057600080fd5b5061057c806100206000396000f3fe608060405234801561001057600080fd5b50600436106100415760003560e01c80633de4eb171461004657806343ae80d314610064578063c1b9d98b14610094575b600080fd5b61004e6100b0565b60405161005b919061040e565b60405180910390f35b61007e600480360381019061007991906102e2565b610131565b60405161008b91906103f3565b60405180910390f35b6100ae60048036038101906100a9919061030b565b610167565b005b6100b8610295565b6000601080602002604051908101604052809291908260108015610127576020028201915b8160009054906101000a900473ffffffffffffffffffffffffffffffffffffffff1673ffffffffffffffffffffffffffffffffffffffff16815260200190600101908083116100dd575b5050505050905090565b6000816010811061014157600080fd5b016000915054906101000a900473ffffffffffffffffffffffffffffffffffffffff1681565b60008163ffffffff16101580156101855750600f8163ffffffff1611155b6101c4576040517f08c379a00000000000000000000000000000000000000000000000000000000081526004016101bb9061042a565b60405180910390fd5b3360008263ffffffff1660108110610205577f4e487b7100000000000000000000000000000000000000000000000000000000600052603260045260246000fd5b0160006101000a81548173ffffffffffffffffffffffffffffffffffffffff021916908373ffffffffffffffffffffffffffffffffffffffff1602179055503373ffffffffffffffffffffffffffffffffffffffff167fda7cd8d1fbb6ee4fb2ebf7cce49d27281b8167b45f23112747e37a35f6ad58a78260405161028a919061044a565b60405180910390a250565b604051806102000160405280601090602082028036833780820191505090505090565b6000813590506102c781610518565b92915050565b6000813590506102dc8161052f565b92915050565b6000602082840312156102f457600080fd5b6000610302848285016102b8565b91505092915050565b60006020828403121561031d57600080fd5b600061032b848285016102cd565b91505092915050565b6000610340838361034c565b60208301905092915050565b610355816104a3565b82525050565b610364816104a3565b82525050565b6103738161046f565b61037d8184610487565b925061038882610465565b8060005b838110156103b95781516103a08782610334565b96506103ab8361047a565b92505060018101905061038c565b505050505050565b60006103ce601283610492565b91506103d9826104ef565b602082019050919050565b6103ed816104df565b82525050565b6000602082019050610408600083018461035b565b92915050565b600061020082019050610424600083018461036a565b92915050565b60006020820190508181036000830152610443816103c1565b9050919050565b600060208201905061045f60008301846103e4565b92915050565b6000819050919050565b600060109050919050565b6000602082019050919050565b600081905092915050565b600082825260208201905092915050565b60006104ae826104b5565b9050919050565b600073ffffffffffffffffffffffffffffffffffffffff82169050919050565b6000819050919050565b600063ffffffff82169050919050565b7f50657420646f6573206e6f742065786973740000000000000000000000000000600082015250565b610521816104d5565b811461052c57600080fd5b50565b610538816104df565b811461054357600080fd5b5056fea26469706673582212203f81716f26748d4d1c25a2fa0953c42371a98a276eea528b993379c8bb1b190864736f6c63430008040033",
  "linkReferences": {},
  "deployedLinkReferences": {}
}